{
  "contractName": "DeFiDonation",
  "abi": [
    {
      "inputs": [
        {
          "internalType": "address",
          "name": "_usdcAddress",
          "type": "address"
        },
        {
          "internalType": "address",
          "name": "_cusdcAddress",
          "type": "address"
        },
        {
          "internalType": "address",
          "name": "_dafAddress",
          "type": "address"
        }
      ],
      "payable": false,
      "stateMutability": "nonpayable",
      "type": "constructor"
    },
    {
      "constant": false,
      "inputs": [],
      "name": "createDonationAccount",
      "outputs": [],
      "payable": false,
      "stateMutability": "nonpayable",
      "type": "function"
    },
    {
      "constant": true,
      "inputs": [],
      "name": "isAccountExists",
      "outputs": [
        {
          "internalType": "bool",
          "name": "",
          "type": "bool"
        }
      ],
      "payable": false,
      "stateMutability": "view",
      "type": "function"
    },
    {
      "constant": true,
      "inputs": [],
      "name": "getDonationAccount",
      "outputs": [
        {
          "internalType": "address",
          "name": "",
          "type": "address"
        }
      ],
      "payable": false,
      "stateMutability": "view",
      "type": "function"
    }
  ],
  "bytecode": "0x608060405234801561001057600080fd5b506040516106223803806106228339818101604052606081101561003357600080fd5b81019080805190602001909291908051906020019092919080519060200190929190505050826000806101000a81548173ffffffffffffffffffffffffffffffffffffffff021916908373ffffffffffffffffffffffffffffffffffffffff16021790555081600160006101000a81548173ffffffffffffffffffffffffffffffffffffffff021916908373ffffffffffffffffffffffffffffffffffffffff16021790555080600360006101000a81548173ffffffffffffffffffffffffffffffffffffffff021916908373ffffffffffffffffffffffffffffffffffffffff1602179055505050506104f68061012c6000396000f3fe608060405234801561001057600080fd5b50600436106100415760003560e01c806331eef72d14610046578063676cae5414610050578063eaa4576b1461009a575b600080fd5b61004e6100bc565b005b61005861032c565b604051808273ffffffffffffffffffffffffffffffffffffffff1673ffffffffffffffffffffffffffffffffffffffff16815260200191505060405180910390f35b6100a261042b565b604051808215151515815260200191505060405180910390f35b600073ffffffffffffffffffffffffffffffffffffffff16600260003373ffffffffffffffffffffffffffffffffffffffff1673ffffffffffffffffffffffffffffffffffffffff16815260200190815260200160002060009054906101000a900473ffffffffffffffffffffffffffffffffffffffff1673ffffffffffffffffffffffffffffffffffffffff161461015457600080fd5b6000600360009054906101000a900473ffffffffffffffffffffffffffffffffffffffff1673ffffffffffffffffffffffffffffffffffffffff16634159b3f56000809054906101000a900473ffffffffffffffffffffffffffffffffffffffff16600160009054906101000a900473ffffffffffffffffffffffffffffffffffffffff166040518363ffffffff1660e01b8152600401808373ffffffffffffffffffffffffffffffffffffffff1673ffffffffffffffffffffffffffffffffffffffff1681526020018273ffffffffffffffffffffffffffffffffffffffff1673ffffffffffffffffffffffffffffffffffffffff16815260200192505050602060405180830381600087803b15801561026e57600080fd5b505af1158015610282573d6000803e3d6000fd5b505050506040513d602081101561029857600080fd5b8101908080519060200190929190505050905080600260003373ffffffffffffffffffffffffffffffffffffffff1673ffffffffffffffffffffffffffffffffffffffff16815260200190815260200160002060006101000a81548173ffffffffffffffffffffffffffffffffffffffff021916908373ffffffffffffffffffffffffffffffffffffffff16021790555050565b60008073ffffffffffffffffffffffffffffffffffffffff16600260003373ffffffffffffffffffffffffffffffffffffffff1673ffffffffffffffffffffffffffffffffffffffff16815260200190815260200160002060009054906101000a900473ffffffffffffffffffffffffffffffffffffffff1673ffffffffffffffffffffffffffffffffffffffff1614156103c657600080fd5b600260003373ffffffffffffffffffffffffffffffffffffffff1673ffffffffffffffffffffffffffffffffffffffff16815260200190815260200160002060009054906101000a900473ffffffffffffffffffffffffffffffffffffffff16905090565b60008073ffffffffffffffffffffffffffffffffffffffff16600260003373ffffffffffffffffffffffffffffffffffffffff1673ffffffffffffffffffffffffffffffffffffffff16815260200190815260200160002060009054906101000a900473ffffffffffffffffffffffffffffffffffffffff1673ffffffffffffffffffffffffffffffffffffffff16141590509056fea265627a7a72315820e3fbd4a7bb7d6ed93428e5ebd483155720e4504928ca0aa68b9289e47dfdc20864736f6c63430005100032",
  "source": "pragma solidity 0.5.16;\nimport \"../centre-tokens/contracts/FiatTokenV1.sol\";\nimport \"../compound-protocol/contracts/CErc20.sol\";\nimport \"./DonationAccountFactory.sol\";\n\ncontract DeFiDonation {\n  FiatTokenV1 private usdc;\n  CErc20 private cusdc;\n  mapping(address => address) private donationAccounts;\n  DonationAccountFactory private daf;\n  \n  constructor(address _usdcAddress, address _cusdcAddress, address _dafAddress) public {\n\t  usdc = FiatTokenV1(_usdcAddress);\n\t  cusdc = CErc20(_cusdcAddress);\n\t  daf = DonationAccountFactory(_dafAddress);\n  }\n\n  function createDonationAccount() public {\n\t  require(donationAccounts[msg.sender] == address(0));\n\t  address donationAccount = daf.createInstance(address(usdc), address(cusdc));\n\t  donationAccounts[msg.sender] = donationAccount;\n  }\n\n  function isAccountExists() public view returns (bool){\n\t  return donationAccounts[msg.sender] != address(0);\n  }\n\n  function getDonationAccount() public view returns (address) {\n\t  require(donationAccounts[msg.sender] != address(0));\n\t  return donationAccounts[msg.sender];\n  }\n\n}\n",
  "sourcePath": "/Users/yukitanaka/Documents/dev/solidity/defi-donation/contracts/DeFiDonation.sol",
  "compiler": {
    "name": "solc",
    "version": "0.5.16+commit.9c3226ce.Emscripten.clang"
  },
  "schemaVersion": "3.0.22",
  "updatedAt": "2020-03-07T13:52:06.831Z",
  "networkType": "ethereum",
  "devdoc": {
    "methods": {}
  },
  "userdoc": {
    "methods": {}
  }
}