{
  "contractName": "DonationAccountFactory",
  "abi": [
    {
      "constant": false,
      "inputs": [
        {
          "internalType": "address",
          "name": "_usdcAddress",
          "type": "address"
        },
        {
          "internalType": "address",
          "name": "_cusdcAddress",
          "type": "address"
        }
      ],
      "name": "createInstance",
      "outputs": [
        {
          "internalType": "address",
          "name": "",
          "type": "address"
        }
      ],
      "payable": false,
      "stateMutability": "nonpayable",
      "type": "function"
    }
  ],
  "bytecode": "0x608060405234801561001057600080fd5b506113a2806100206000396000f3fe608060405234801561001057600080fd5b506004361061002b5760003560e01c80634159b3f514610030575b600080fd5b6100926004803603604081101561004657600080fd5b81019080803573ffffffffffffffffffffffffffffffffffffffff169060200190929190803573ffffffffffffffffffffffffffffffffffffffff1690602001909291905050506100d4565b604051808273ffffffffffffffffffffffffffffffffffffffff1673ffffffffffffffffffffffffffffffffffffffff16815260200191505060405180910390f35b600082826040516100e490610172565b808373ffffffffffffffffffffffffffffffffffffffff1673ffffffffffffffffffffffffffffffffffffffff1681526020018273ffffffffffffffffffffffffffffffffffffffff1673ffffffffffffffffffffffffffffffffffffffff16815260200192505050604051809103906000f080158015610169573d6000803e3d6000fd5b50905092915050565b6111ee806101808339019056fe608060405234801561001057600080fd5b506040516111ee3803806111ee8339818101604052604081101561003357600080fd5b810190808051906020019092919080519060200190929190505050816000806101000a81548173ffffffffffffffffffffffffffffffffffffffff021916908373ffffffffffffffffffffffffffffffffffffffff16021790555080600160006101000a81548173ffffffffffffffffffffffffffffffffffffffff021916908373ffffffffffffffffffffffffffffffffffffffff160217905550505061110e806100e06000396000f3fe608060405234801561001057600080fd5b506004361061007c5760003560e01c80639213b1241161005b5780639213b12414610111578063db006a751461013f578063dbffeddf1461016d578063e2c67439146101bb5761007c565b8062362a951461008157806335403023146100c5578063772f502a146100f3575b600080fd5b6100c36004803603602081101561009757600080fd5b81019080803573ffffffffffffffffffffffffffffffffffffffff1690602001909291905050506101d9565b005b6100f1600480360360208110156100db57600080fd5b81019080803590602001909291905050506105ab565b005b6100fb6107df565b6040518082815260200191505060405180910390f35b61013d6004803603602081101561012757600080fd5b81019080803590602001909291905050506108db565b005b61016b6004803603602081101561015557600080fd5b8101908080359060200190929190505050610ad0565b005b6101b96004803603604081101561018357600080fd5b81019080803573ffffffffffffffffffffffffffffffffffffffff16906020019092919080359060200190929190505050610e4d565b005b6101c3610fb7565b6040518082815260200191505060405180910390f35b6000600560008373ffffffffffffffffffffffffffffffffffffffff1673ffffffffffffffffffffffffffffffffffffffff1681526020019081526020016000205490506000600160009054906101000a900473ffffffffffffffffffffffffffffffffffffffff1673ffffffffffffffffffffffffffffffffffffffff1663852a12e3836040518263ffffffff1660e01b815260040180828152602001915050602060405180830381600087803b15801561029457600080fd5b505af11580156102a8573d6000803e3d6000fd5b505050506040513d60208110156102be57600080fd5b810190808051906020019092919050505014610342576040517f08c379a00000000000000000000000000000000000000000000000000000000081526004018080602001828103825260148152602001807f736f6d657468696e672077656e742077726f6e6700000000000000000000000081525060200191505060405180910390fd5b6000809054906101000a900473ffffffffffffffffffffffffffffffffffffffff1673ffffffffffffffffffffffffffffffffffffffff1663a9059cbb83836040518363ffffffff1660e01b8152600401808373ffffffffffffffffffffffffffffffffffffffff1673ffffffffffffffffffffffffffffffffffffffff16815260200182815260200192505050602060405180830381600087803b1580156103ea57600080fd5b505af11580156103fe573d6000803e3d6000fd5b505050506040513d602081101561041457600080fd5b8101908080519060200190929190505050610497576040517f08c379a000000000000000000000000000000000000000000000000000000000815260040180806020018281038252600d8152602001807f5472616e73666572204661696c0000000000000000000000000000000000000081525060200191505060405180910390fd5b6000600480549050905060008090505b81811015610562578373ffffffffffffffffffffffffffffffffffffffff16600482815481106104d357fe5b9060005260206000200160009054906101000a900473ffffffffffffffffffffffffffffffffffffffff1673ffffffffffffffffffffffffffffffffffffffff161415610555576004818154811061052757fe5b9060005260206000200160006101000a81549073ffffffffffffffffffffffffffffffffffffffff02191690555b80806001019150506104a7565b50600560008473ffffffffffffffffffffffffffffffffffffffff1673ffffffffffffffffffffffffffffffffffffffff16815260200190815260200160002060009055505050565b6105b4816108db565b6000809054906101000a900473ffffffffffffffffffffffffffffffffffffffff1673ffffffffffffffffffffffffffffffffffffffff1663095ea7b3600160009054906101000a900473ffffffffffffffffffffffffffffffffffffffff16836040518363ffffffff1660e01b8152600401808373ffffffffffffffffffffffffffffffffffffffff1673ffffffffffffffffffffffffffffffffffffffff16815260200182815260200192505050602060405180830381600087803b15801561067e57600080fd5b505af1158015610692573d6000803e3d6000fd5b505050506040513d60208110156106a857600080fd5b8101908080519060200190929190505050506000600160009054906101000a900473ffffffffffffffffffffffffffffffffffffffff1673ffffffffffffffffffffffffffffffffffffffff1663a0712d68836040518263ffffffff1660e01b815260040180828152602001915050602060405180830381600087803b15801561073157600080fd5b505af1158015610745573d6000803e3d6000fd5b505050506040513d602081101561075b57600080fd5b81019080805190602001909291905050501461077357fe5b6107888160035461109a90919063ffffffff16565b6003819055503373ffffffffffffffffffffffffffffffffffffffff167f6473c9f7da8f23a3d810f05b3e8fb3945f0ad17deadcc09e302cdf5d58e48fe7826040518082815260200191505060405180910390a250565b600080600160009054906101000a900473ffffffffffffffffffffffffffffffffffffffff1673ffffffffffffffffffffffffffffffffffffffff16633af9e669306040518263ffffffff1660e01b8152600401808273ffffffffffffffffffffffffffffffffffffffff1673ffffffffffffffffffffffffffffffffffffffff168152602001915050602060405180830381600087803b15801561088357600080fd5b505af1158015610897573d6000803e3d6000fd5b505050506040513d60208110156108ad57600080fd5b810190808051906020019092919050505090506108d5600354826110b990919063ffffffff16565b91505090565b6000809054906101000a900473ffffffffffffffffffffffffffffffffffffffff1673ffffffffffffffffffffffffffffffffffffffff166323b872dd3330846040518463ffffffff1660e01b8152600401808473ffffffffffffffffffffffffffffffffffffffff1673ffffffffffffffffffffffffffffffffffffffff1681526020018373ffffffffffffffffffffffffffffffffffffffff1673ffffffffffffffffffffffffffffffffffffffff1681526020018281526020019350505050602060405180830381600087803b1580156109b757600080fd5b505af11580156109cb573d6000803e3d6000fd5b505050506040513d60208110156109e157600080fd5b8101908080519060200190929190505050610a64576040517f08c379a000000000000000000000000000000000000000000000000000000000815260040180806020018281038252600d8152602001807f5472616e73666572204661696c0000000000000000000000000000000000000081525060200191505060405180910390fd5b610a798160025461109a90919063ffffffff16565b6002819055503373ffffffffffffffffffffffffffffffffffffffff167f2da466a7b24304f47e87fa2e1e5a81b9831ce54fec19055ce277ca2f39ba42c4826040518082815260200191505060405180910390a250565b6000600480549050905060008090505b81811015610bce57600073ffffffffffffffffffffffffffffffffffffffff1660048281548110610b0d57fe5b9060005260206000200160009054906101000a900473ffffffffffffffffffffffffffffffffffffffff1673ffffffffffffffffffffffffffffffffffffffff1614610bc1576040517f08c379a00000000000000000000000000000000000000000000000000000000081526004018080602001828103825260188152602001807f796f75206861766520746f20646f6e617465206669727374000000000000000081525060200191505060405180910390fd5b8080600101915050610ae0565b506000600160009054906101000a900473ffffffffffffffffffffffffffffffffffffffff1673ffffffffffffffffffffffffffffffffffffffff1663852a12e3846040518263ffffffff1660e01b815260040180828152602001915050602060405180830381600087803b158015610c4657600080fd5b505af1158015610c5a573d6000803e3d6000fd5b505050506040513d6020811015610c7057600080fd5b810190808051906020019092919050505014610cf4576040517f08c379a00000000000000000000000000000000000000000000000000000000081526004018080602001828103825260148152602001807f736f6d657468696e672077656e742077726f6e6700000000000000000000000081525060200191505060405180910390fd5b6000809054906101000a900473ffffffffffffffffffffffffffffffffffffffff1673ffffffffffffffffffffffffffffffffffffffff1663a9059cbb33846040518363ffffffff1660e01b8152600401808373ffffffffffffffffffffffffffffffffffffffff1673ffffffffffffffffffffffffffffffffffffffff16815260200182815260200192505050602060405180830381600087803b158015610d9c57600080fd5b505af1158015610db0573d6000803e3d6000fd5b505050506040513d6020811015610dc657600080fd5b8101908080519060200190929190505050610e49576040517f08c379a000000000000000000000000000000000000000000000000000000000815260040180806020018281038252600d8152602001807f5472616e73666572204661696c0000000000000000000000000000000000000081525060200191505060405180910390fd5b5050565b60048290806001815401808255809150509060018203906000526020600020016000909192909190916101000a81548173ffffffffffffffffffffffffffffffffffffffff021916908373ffffffffffffffffffffffffffffffffffffffff160217905550507f4a31f5ac372495eeadf90f1b0d3a4693dbb858e9f2e9730987f6d93338dc06ac8282604051808373ffffffffffffffffffffffffffffffffffffffff1673ffffffffffffffffffffffffffffffffffffffff1681526020018281526020019250505060405180910390a1610f7081600560008573ffffffffffffffffffffffffffffffffffffffff1673ffffffffffffffffffffffffffffffffffffffff1681526020019081526020016000205461109a90919063ffffffff16565b600560008473ffffffffffffffffffffffffffffffffffffffff1673ffffffffffffffffffffffffffffffffffffffff168152602001908152602001600020819055505050565b6000600160009054906101000a900473ffffffffffffffffffffffffffffffffffffffff1673ffffffffffffffffffffffffffffffffffffffff16633af9e669306040518263ffffffff1660e01b8152600401808273ffffffffffffffffffffffffffffffffffffffff1673ffffffffffffffffffffffffffffffffffffffff168152602001915050602060405180830381600087803b15801561105a57600080fd5b505af115801561106e573d6000803e3d6000fd5b505050506040513d602081101561108457600080fd5b8101908080519060200190929190505050905090565b6000808284019050838110156110af57600080fd5b8091505092915050565b6000828211156110c857600080fd5b60008284039050809150509291505056fea265627a7a7231582016a8a3efb1b95207deb17dc06fb9d49d124f6fc1a2a0b593d83f9abff8c9d3c064736f6c63430005100032a265627a7a72315820df7808f2bcdea25346ba227a2e03efd510fbc4c772ae00175219ea66c16d39be64736f6c63430005100032",
  "source": "//pragma solidity >= 0.5.0 < 0.7.0;\npragma solidity 0.5.16;\nimport \"../centre-tokens/contracts/FiatTokenV1.sol\";\nimport \"../compound-protocol/contracts/CErc20.sol\";\n\ncontract DonationAccountFactory {\n  function createInstance(address _usdcAddress, address _cusdcAddress) public returns (address){\n    return address(new DonationAccount(_usdcAddress, _cusdcAddress));\n  }\n}\n\ncontract DonationAccount {\n  FiatTokenV1 private usdc;\n  CErc20 private cusdc;\n  uint private depositedBalance;\n  uint private suppliedBalance;\n  address[] private projects;\n  mapping(address => uint) private donateAmount;\n  using SafeMath for uint256;\n\n  constructor(address _usdcAddress, address _cusdcAddress) public {\n\t  usdc = FiatTokenV1(_usdcAddress);\n\t  cusdc = CErc20(_cusdcAddress);\n  }\n\n  /**\n   * Emitted when a user deposits into the Contract.\n   * @param sender The purchaser of the tickets\n   * @param amount The size of the deposit\n   */\n  event Deposited(address indexed sender, uint256 amount);\n\n  /**\n   * Emitted when a user supplies into the Compound.\n   * @param sender The purchaser of the tickets\n   * @param amount The size of the deposit\n   */\n  event Supplied(address indexed sender, uint256 amount);\n\n\n  event AddProject(address _address, uint256 amount);\n\n  /**\n   * @notice Deposits.  Updates their balance and transfers their tokens into this contract.\n   * @param _amount The amount they are depositing\n   */\n  function _deposit(uint _amount) public {\n    // Transfer the tokens into this contract\n    require(usdc.transferFrom(msg.sender, address(this), _amount), \"Transfer Fail\");\n\n    // Update the user's balance\n    depositedBalance = depositedBalance.add(_amount);\n\n\temit Deposited(msg.sender, _amount);\n  }\n\n  function supply(uint _amount) public {\n    _deposit(_amount);\n    usdc.approve(address(cusdc),_amount);\n    assert(cusdc.mint(_amount) == 0);\n    suppliedBalance = suppliedBalance.add(_amount);\n\n\temit Supplied(msg.sender, _amount);\n  }\n\n  function addDonateProject(address _projectAddress, uint _amount) public {\n    projects.push(_projectAddress);\n\temit AddProject(_projectAddress, _amount);\n    donateAmount[_projectAddress] = donateAmount[_projectAddress].add(_amount);\n  }\n\n  function getUnderlyingBalance() public returns(uint) {\n    return cusdc.balanceOfUnderlying(address(this));\n  }\n\n  function getInterestBalance() public returns(uint) {\n    uint _balance = cusdc.balanceOfUnderlying(address(this));\n    return _balance.sub(suppliedBalance);\n  }\n\n  function donate(address _projectAddress) public {\n    uint _amount = donateAmount[_projectAddress];\n    require(cusdc.redeemUnderlying(_amount) == 0, \"something went wrong\");\n    require(usdc.transfer(_projectAddress, _amount), \"Transfer Fail\");\n\tuint length = projects.length;\n\tfor(uint i = 0; i < length; i++ ) {\n\t\tif (projects[i] == _projectAddress) {\n\t      delete projects[i];\n\t\t}\n\t}\n\tdelete donateAmount[_projectAddress];\n  }\n\n  function redeem(uint _amount) public {\n\tuint length = projects.length;\n\tfor(uint i = 0; i < length; i++ ) {\n      require(projects[i] == address(0), \"you have to donate first\");\n\t}\n    require(cusdc.redeemUnderlying(_amount) == 0, \"something went wrong\");\n    require(usdc.transfer(msg.sender, _amount), \"Transfer Fail\");\n  } \n}\n",
  "sourcePath": "/Users/yukitanaka/Documents/dev/solidity/defi-donation/contracts/DonationAccountFactory.sol",
  "compiler": {
    "name": "solc",
    "version": "0.5.16+commit.9c3226ce.Emscripten.clang"
  },
  "schemaVersion": "3.0.22",
  "updatedAt": "2020-03-07T13:52:06.838Z",
  "networkType": "ethereum",
  "devdoc": {
    "methods": {}
  },
  "userdoc": {
    "methods": {}
  }
}